:04000000CAEF3FF014
:107F94000001D4EF3FF0870ED56E440ED66E480E26
:107FA400D76E1200000E936E000E816ECDEC3FF082
:107FB400000E036E000E026E8A90F2A4FED7440EE9
:107FC400D66E480ED76E024A032AF29403BEF5D742
:107FD400035004E1020E025CD8A0EFD78AB003D0AC
:107FE400016A012A01D0016A8A500118FE0B0118A6
:0C7FF4008A6E000E036E000E026EDFD7D6
:020000040020DA
:08000000FFFFFFFFFFFFFFFF00
:020000040030CA
:0E000000040E1F1FFF0385FF0FC00FE00F400F
:00000001FF
