:0400000007EF00F016
:10000800118209ED00F069EF00F00600FACF03F065
:10001800FBCF04F0E9CF05F0EACF06F0E1CF07F017
:10002800E2CF08F0D9CF09F0DACF0AF0F3CF0BF01E
:10003800F4CF0CF0F6CF0DF0F7CF0EF0F8CF0FF0AD
:10004800F5CF10F0F2A218D08AB203D0016A012AC3
:1000580001D0016A01468A500118FD0B01188A6E09
:10006800100E026E390E016E0E0EE82EFED7012E0E
:10007800FCD7022EFAD7F29210C0F5FF0FC0F8FF96
:100088000EC0F7FF0DC0F6FF0CC0F4FF0BC0F3FF66
:100098000AC0DAFF09C0D9FF08C0E2FF07C0E1FFC4
:1000A80006C0EAFF05C0E9FF04C0FBFF03C0FAFF72
:1000B80011921100938093928A920F0EC112F28EC0
:1000C800F28CF288F292F18C1200119011920001D8
:0A00D8006EEF00F05EEC00F0FFD7C1
:020000040020DA
:08000000FFFFFFFFFFFFFFFF00
:020000040030CA
:0E000000040E1F1FFF0385FF0FC00FE00F400F
:00000001FF
