:04000000D8EF3EF007
:107DB000000EF86E0001FAEF3EF0000E926E000E1B
:107DC000936E000E946E000E956E000E966E12006D
:107DD00004D089CF01F0026A120001C003F002C092
:107DE00004F00450000AD8A412000350000AD8A4DA
:107DF0001200EFD7DDEC3EF0000E026E000E016EB9
:107E0000000E046E0368000E066E000E056E4AEC4E
:107E10003FF0000E026E000E016E000E046E010EA9
:107E2000036E000E066E010E056EA5EC3FF0100EFF
:107E30000A6E390E096E0E0EE82EFED7092EFCD7FB
:107E40000A2EFAD789508924896E100E0A6E390ECF
:107E5000096E0E0EE82EFED7092EFCD70A2EFAD791
:107E6000000E026E000E016EE8EC3EF0080E0118E6
:107E70000210D8A4DCD7000E026E000E016E000EB8
:107E8000046E010E036E000E066E010E056EA5EC6B
:107E90003FF0CDD741D005500610D8B404D0925051
:107EA0000310926E12000350FF0A9214926E120099
:107EB00005500610D8B404D093500310936E1200EE
:107EC0000350FF0A9314936E120005500610D8B4A5
:107ED00004D094500310946E12000350FF0A9414BF
:107EE000946E120005500610D8B404D095500310BB
:107EF000956E12000350FF0A9514956E12000550FE
:107F00000610D8B404D096500310966E1200035099
:107F1000FF0A9614966E120001C007F002C008F026
:107F20000850000AD8A412000750000AD8B4B3D7EA
:107F3000010AD8B4BDD7030AD8B4C7D7010AD8B448
:107F4000D1D7070AD8A41200DAD741D005500610BD
:107F5000D8B404D089500310896E12000350FF0A70
:107F60008914896E120005500610D8B404D08A50C6
:107F700003108A6E12000350FF0A8A148A6E1200E0
:107F800005500610D8B404D08B5003108B6E12002D
:107F90000350FF0A8B148B6E120005500610D8B4E4
:107FA00004D08C5003108C6E12000350FF0A8C1406
:107FB0008C6E120005500610D8B404D08D500310FA
:107FC0008D6E12000350FF0A8D148D6E120001C0D9
:107FD00007F002C008F00850000AD8A412000750A9
:107FE000000AD8B4B3D7010AD8B4BDD7030AD8B4AD
:107FF000C7D7010AD8B4D1D7070AD8A41200DAD754
:020000040020DA
:08000000FFFFFFFFFFFFFFFF00
:020000040030CA
:0E000000140E1F1EFF8385FF0FC00FE00F4080
:00000001FF
