:04000000A2EF3FF03C
:107F44000001B7EF3FF0000E936E000E8A6EC50E6F
:107F5400D56E000ED76E440ED66EF294B90ECD6E69
:107F6400240ECE6EFA0ECF6E1200A5EC3FF0000E7A
:107F7400036E000E026E3DD09EA01ED09E90024A5B
:107F8400032A240ECE6EFA0ECF6E03BE15D0035014
:107F940004E1640E025CD8A00FD08AB003D0016A59
:107FA400012A01D0016A8A500118FE0B01188A6E59
:107FB400000E036E000E026EF2A4DED7044A052AF8
:107FC400F294000ED76E440ED66E05BED5D705507A
:107FD40004E1C80E045CD8A0CFD78AB203D0016AEA
:107FE400012A01D0016A01468A500118FD0B0118CB
:0C7FF4008A6E000E056E000E046EBED7F3
:020000040020DA
:08000000FFFFFFFFFFFFFFFF00
:020000040030CA
:0E000000040E1F1FFF0385FF0FC00FE00F400F
:00000001FF
