:0400000007EF00F016
:0A000800378259ED06F0AAEF07F069
:100800000001000A006400E80310274573746120AA
:10081000657320756E612070727565626120256454
:100820002065737465206573206F74726F20766124
:100830006C6F7200414443206D6F64756C6520736A
:100840007461727465642E2E2E004C6F6164696E43
:10085000672073797374656D2E2E2E002025640039
:010860000097
:10086200620E0001646F000E0001656F91D0250ECB
:1008720000016A19D8B405D000016A51B1EC07F041
:1008820087D0000E0001666F60C0F6FF61C0F7FFFF
:100892000001604B612B0800F5CF6AF000016A513C
:1008A200000AD8B41200640AD8B403D00D0AD8A43E
:1008B2006FD064C0D9FF65C0DAFFDECF68F0DDCF4C
:1008C20069F0020E00016427000E6523000169AF82
:1008D20008D0030E000166130001686D691FD8B0CD
:1008E200692B010E00016A6F050E00016A19D8B466
:1008F20016D000016A51020D010EF324F66E080EA5
:10090200F420F76E0900F5500001685D0900F5500A
:1009120000016959D8A003D000016A2BE5D766C04F
:1009220035F0030E3516D8B403D02D0EB1EC07F016
:100932006AC067F027D000016751020D010EF3244F
:10094200F66E080EF420F76E0900F5CF2BF00A00C0
:10095200F5CF2CF068C029F069C02AF0D4EC06F07B
:1009620029C030F02AC031F0000E336E0A0E326E0A
:1009720026EC07F03050300F00016A6F00016A5117
:10098200B1EC07F00001670700016729D8A4D3D7AB
:1009920060C0F6FF61C0F7FF0001604B612B0800E9
:1009A200F5CF6AF000016A51D8B4120060D70F0E79
:1009B200126E000E136E7DD0250E1818D8B404D016
:1009C2001850BDEC07F075D0000E146E0DC0F6FF86
:1009D2000EC0F7FF0D4A0E2A0800F5CF18F0185086
:1009E200000AD8B41200640AD8B403D00D0AD8A4FD
:1009F20060D012C0D9FF13C0DAFFDECF16F0DDCF10
:100A020017F0020E1226000E132217AE06D0030EA6
:100A12001412166C171ED8B0172A010E186E050E86
:100A22001818D8B412D01850020D010EF324F66E25
:100A3200080EF420F76E0900F550165C0900F55017
:100A42001758D8A002D0182AEAD714C011F0030E02
:100A52001116D8B403D02D0EBDEC07F018C015F056
:100A620024D01550020D010EF324F66E080EF42068
:100A7200F76E0900F5CF03F00A00F5CF04F016C0B7
:100A820001F017C002F0FDEC06F001C008F002C050
:100A920009F0000E0B6E0A0E0A6E47EC07F00850C2
:100AA200300F186E1850BDEC07F015061528D8A4A3
:100AB200D8D70DC0F6FF0EC0F7FF0D4A0E2A080068
:100AC200F5CF18F01850D8B4120076D7000166514D
:100AD20000016711D8A402D0AC9801D0AC88AB8ECB
:100AE200949C948EAB88AC8A9D8AF28EF28CAC84F4
:100AF2000001685100016911D8B43BD0B88660C0CA
:100B02002DF061C02EF0000E2EBEFF0E2F6E306E45
:100B120062C029F063C02AF064C02BF065C02CF0DB
:100B2200F3EC05F029C06AF02AC06BF02BC06CF020
:100B32002CC06DF06AC029F06BC02AF06CC02BF09B
:100B42006DC02CF0040E2D6E000E2E6E000E2F6E58
:100B5200000E306EF3EC05F0FF0E292400016E6FDB
:100B6200FF0E2A2000016F6F6EC0AFFF000EB06E45
:100B72001200B89660C02DF061C02EF0000E2EBE9D
:100B8200FF0E2F6E306E62C029F063C02AF064C07F
:100B92002BF065C02CF0F3EC05F029C06AF02AC0F6
:100BA2006BF02BC06CF02CC06DF06AC029F06BC0EA
:100BB2002AF06CC02BF06DC02CF0100E2D6E000EC2
:100BC2002E6E000E2F6E000E306EF3EC05F0FF0E4F
:100BD200292400016E6FFF0E2A2000016F6F6EC084
:100BE200AFFF1200000E326E30AE0AD0301E2F1E42
:100BF2002E1E2D6C000E2E222F223022010E326E5E
:100C02002CAE0AD02C1E2B1E2A1E296C000E2A2264
:100C12002B222C22010E321A000E336E000E346E7D
:100C2200000E356E000E366E2D502E102F10301025
:100C3200D8B42AD0010E316E06D0D8902D362E3679
:100C42002F363036312A30AEF8D7D8903336343694
:100C5200353636362D50295C2E502A582F502B58B7
:100C620030502C58D8A009D02D50295E2E502A5A27
:100C72002F502B5A30502C5A3380D89030322F328A
:100C82002E322D32312EE1D73250D8B408D0361E52
:100C9200351E341E336C000E34223522362233C008
:100CA20029F034C02AF035C02BF036C02CF01200E7
:100CB2000600FACF1BF0FBCF1CF0E9CF1DF0EACF04
:100CC2001EF0E1CF1FF0E2CF20F0D9CF21F0DACF32
:100CD20022F0F3CF23F0F4CF24F0F6CF25F0F7CFB4
:100CE20026F0F8CF27F0F5CF28F09EAC03D087ECA2
:100CF20007F09E9C28C0F5FF27C0F8FF26C0F7FF2B
:100D020025C0F6FF24C0F4FF23C0F3FF22C0DAFFA0
:100D120021C0D9FF20C0E2FF1FC0E1FF1EC0EAFFD1
:100D22001DC0E9FF1CC0FBFF1BC0FAFF3792110078
:100D3200250E0001616F800E606F000E0001626F70
:100D4200360E636F6E0E646F010E656F000E00014A
:100D5200676F000E666F000E0001696F000E686F0C
:100D620067EC05F04A0E2A6E080E2B6E68EC07F04F
:100D720097EC07F0340E2A6E080E2B6E68EC07F023
:100D82000B0E0001606F080E0001616FC0CF62F0B0
:100D92000001636B31EC04F0000E2A6E000E296E26
:100DA200A1EC07F0FFD7000E2E6E000E2D6E2B5019
:100DB2002C10D8B41CD0010E2F6E04D0D8902B3634
:100DC2002C362F2A2CAEFAD7D8902D362E362B5011
:100DD200295C2C502A58D8A005D02B50295E2C50C3
:100DE2002A5A2D80D8902C322B322F2EEDD72DC09F
:100DF20029F02EC02AF01200000E066E000E056EBB
:100E020003500410D8B41CD0010E076E04D0D89041
:100E120003360436072A04AEFAD7D89005360636CA
:100E22000350015C04500258D8A005D00350015E63
:100E32000450025A0580D89004320332072EEDD7AF
:100E420005C001F006C002F0120032503310D8B4CF
:100E520018D0010E346E04D0D89032363336342A8C
:100E620033AEFAD73250305C33503158D8A004D068
:100E72003250305E3350315AD89033323232342EBF
:100E8200F1D730C030F031C031F012000A500B10EF
:100E9200D8B418D0010E0C6E04D0D8900A360B3696
:100EA2000C2A0BAEFAD70A50085C0B500958D8A08E
:100EB20004D00A50085E0B50095AD8900B320A32FD
:100EC2000C2EF1D708C008F009C009F012002AC0A0
:100ED2002CF02BC02DF00AD02CC0F6FF2DC0F7FF4E
:100EE2000800F550B7EC07F02C4A2D2A2CC0F6FF6B
:100EF2002DC0F7FF0800F5500009D8A4EDD70A0E5F
:100F0200B7EC07F00D0EB7EC07F012005C0E0D6E99
:100F1200080E0E6EC4501A6E196AC35019240F6E51
:100F2200000E1A20106ED8EC04F01200000EC16EF2
:100F3200920EC06E92689D8C9E9CF28EF28C120074
:100F4200000EC26E2944E846FC0BC212C280C28265
:100F5200120037903792000EF86E000199EF06F0FA
:100F6200296E29C0ADFFACB21200FDD7296E29C08F
:100F7200ADFFACB21200FDD7016E01C0ADFFACB245
:040F82001200FDD785
:020000040020DA
:08000000FFFFFFFFFFFFFFFF00
:020000040030CA
:0E000000140E1F1EFF8385FF0FC00FE00F4080
:00000001FF
