:040000004CEF05F0CC
:10080000005374617274696E672070726F636573F0
:070810002E2E2E00730000E4
:1008180015501610D8A402D0AC9801D0AC88AB8E75
:10082800949C948EAB88AC8A9D8AF28EF28CAC84B0
:1008380017501810D8B439D0B8860FC005F010C0BA
:1008480006F0000E06BEFF0E076E086E11C001F01E
:1008580012C002F013C003F014C004F090EC04F0CE
:1008680001C019F002C01AF003C01BF004C01CF04C
:1008780019C001F01AC002F01BC003F01CC004F03C
:10088800040E056E000E066E000E076E000E086E52
:1008980090EC04F0FF0E01241D6EFF0E02201E6E68
:1008A8001DC0AFFF000EB06E1200B8960FC005F065
:1008B80010C006F0000E06BEFF0E076E086E11C0CF
:1008C80001F012C002F013C003F014C004F090EC61
:1008D80004F001C019F002C01AF003C01BF004C0F4
:1008E8001CF019C001F01AC002F01BC003F01CC0B4
:1008F80004F0100E056E000E066E000E076E000E58
:10090800086E90EC04F0FF0E01241D6EFF0E02200D
:100918001E6E1DC0AFFF1200000E0A6E08AE0AD090
:10092800081E071E061E056C000E06220722082256
:10093800010E0A6E04AE0AD0041E031E021E016CCC
:10094800000E022203220422010E0A1A000E0B6E68
:10095800000E0C6E000E0D6E000E0E6E0550061089
:1009680007100810D8B42AD0010E096E06D0D89006
:100978000536063607360836092A08AEF8D7D8905D
:100988000B360C360D360E360550015C06500258F3
:100998000750035808500458D8A009D00550015EE4
:1009A8000650025A0750035A0850045A0B80D89030
:1009B8000832073206320532092EE1D70A50D8B478
:1009C80008D00E1E0D1E0C1E0B6C000E0C220D22E4
:1009D8000E220BC001F00CC002F00DC003F00EC0D7
:1009E80004F01200250E106E800E0F6E000E116EB0
:1009F800360E126E6E0E136E010E146E000E166E0B
:100A0800000E156E000E186E000E176E0CEC04F03A
:100A1800010E026E080E036E2DEC05F0000E936EAB
:100A2800000E8A6E9268010EC26E000EC16EAA0E8A
:100A3800C06E0B0EBD6E150EBF6EA00EBE6EB10E53
:100A4800CD6E150ECF6EA00ECE6EC2B2FED78A1E28
:100A5800FCD702C004F003C005F00AD004C0F6FFBA
:100A680005C0F7FF0800F55053EC05F0044A052AC5
:100A780004C0F6FF05C0F7FF0800F5500009D8A428
:100A8800EDD70A0E53EC05F00D0E53EC05F01200ED
:100A9800000EF86E080EF76E0001F6EF04F0016E16
:0A0AA80001C0ADFFACB21200FDD793
:020000040020DA
:08000000FFFFFFFFFFFFFFFF00
:020000040030CA
:0E000000140E1F1EFF8385FF0FC00FE00F4080
:00000001FF
