:0400000007EF00F016
:0A0008005E820CED0CF062EF0DF0CB
:100800000000803F72313FFE753E58633D951D3CB0
:10081000C5AE3A79213994803793A73556153400FF
:10082000000000803FF0FFBEE2A93E8376BEAE2B03
:0B0830003E3CC3BDD2133D78D3BB009B
:10083C00000E0001726F000E716F000172BF0AD0C2
:10084C000001725106E10A0E0001715DD8B0120070
:10085C0001D01200010E58145A6E000E59145B6E22
:10086C00D89000017135D96E00017235DA6E810EA7
:10087C00D926000EDA225AC0DEFF5BC0DDFF58C05D
:10088C0001F059C002F0000E046E020E036ECAECA9
:10089C000BF001C058F002C059F0000172BF08D033
:1008AC000001725165E1030E0001715DD8B060D09A
:1008BC0071C009F072C00AF00BEC0DF009C06BF0BE
:1008CC000AC06CF00BC06DF06BC055F06CC056F0EC
:1008DC006DC057F0000E526E000E536E400E546EEB
:1008EC00F2EC06F052C06EF053C06FF054C070F0D2
:1008FC00D89000017135D96E00017235DA6E810E17
:10090C00D926000EDA22DECF09F0DDCF0AF00BEC8F
:10091C000DF009C010F00AC011F00BC012F06EC03F
:10092C000DF06FC00EF070C00FF0BBEC08F00DC0F6
:10093C001FF00EC020F00FC021F097C009F098C036
:10094C000AF00BEC0DF009C01CF00AC01DF00BC036
:10095C001EF01CEC06F01CC028F01DC029F01EC0B7
:10096C002AF041EC08F028C097F029C098F05FD02D
:10097C0071C009F072C00AF00BEC0DF009C06BF0FD
:10098C000AC06CF00BC06DF06BC055F06CC056F02B
:10099C006DC057F0000E526E000E536E400E546E2A
:1009AC00F2EC06F052C06EF053C06FF054C070F011
:1009BC00D89000017135D96E00017235DA6E810E56
:1009CC00D926000EDA22DECF09F0DDCF0AF00BECCF
:1009DC000DF009C010F00AC011F00BC012F06EC07F
:1009EC000DF06FC00EF070C00FF0BBEC08F00DC036
:1009FC001FF00EC020F00FC021F099C009F09AC072
:100A0C000AF00BEC0DF009C01CF00AC01DF00BC075
:100A1C001EF01CEC06F01CC028F01DC029F01EC0F6
:100A2C002AF041EC08F028C099F029C09AF0000196
:100A3C00714B722B000172BF0DD70001725101E195
:100A4C0002D7120049504A104B10D8A407D0000E00
:100A5C00496E800E4A6E3F0E4B6E1200720E016E86
:100A6C00310E026E440E036E49C004F04AC005F00C
:100A7C004BC006F082EC0BF0D8B00CD0000E00018D
:100A8C00966F220E956FFF0E496E7F0E4A6E7F0E8B
:100A9C004B6E120049C001F04AC002F04BC003F08B
:100AAC00490E046E3A0E056EC40E066E82EC0BF007
:100ABC00D8B00CD0000E0001966F220E956F000E70
:100ACC00496E000E4A6E000E4B6E12004BAE02D0F9
:100ADC00010E01D0000E516E5150D8B40ED049C049
:100AEC0001F04AC002F04BC003F050EC0DF001C015
:100AFC0049F002C04AF003C04BF049C00DF04AC0A7
:100B0C000EF04BC00FF0AA0E106EB80E116E3F0E09
:100B1C00126EBBEC08F00DC049F00EC04AF00FC0CD
:100B2C004BF049C041F04AC042F04BC043F0A8EC36
:100B3C0009F041C04CF042C04DF043C04EF04CC0E7
:100B4C0028F04DC029F04EC02AF041EC08F028C026
:100B5C004FF029C050F049C028F04AC029F04BC0D2
:100B6C002AF04FC009F050C00AF00BEC0DF009C090
:100B7C002BF00AC02CF00BC02DF0EBEC0CF028C0C5
:100B8C0049F029C04AF02AC04BF049C028F04AC0AD
:100B9C0029F04BC02AF0010E2B6E080E2C6E000EA5
:100BAC002E6E090E2D6E17EC0AF028C034F029C0F9
:100BBC0035F02AC036F04FC037F050C038F080EC1A
:100BCC000AF034C049F035C04AF036C04BF05150F1
:100BDC00D8B425D049280EE17F0E4A180BE17F0EC0
:100BEC004B18D8A407D0000E496E000E4A6E000EAA
:100BFC004B6E1200000E096E800E0A6E3F0E0B6ECD
:100C0C0049C00CF04AC00DF04BC00EF035EC09F0A9
:100C1C0009C049F00AC04AF00BC04BF0120049C0A1
:100C2C0049F04AC04AF04BC04BF012001EC022F0F3
:100C3C00236A246A1D34223601E323802250276E56
:100C4C0021C022F0236A246A2034223601E3238057
:100C5C002250266E2750D8B40BD02650275CD8B023
:100C6C000ED0275000082624226E180E226407D0BE
:100C7C001FC01CF020C01DF021C01EF01200265019
:100C8C00D8B40BD02750265CD8B00ED02650000814
:100C9C002724226E180E226407D01CC01CF01DC025
:100CAC001DF01EC01EF01200060E256E1EBE258EF7
:100CBC0021BE258C1D8EFF0E1C16FF0E1D16000E60
:100CCC001E16208EFF0E1F16FF0E2016000E21166C
:100CDC002650275CD8B01BD0D8901F362036213632
:100CEC00260627502618D8B40DD0250625C022F08C
:100CFC00070E2216D8B406D0EFD7D8901E321D326C
:100D0C001C32272A26502718D8B41FD0F6D72750C4
:100D1C00265CD8B01AD0D8901C361D361E36270645
:100D2C0027502618D8B40DD0250625C022F0070E62
:100D3C002216D8B406D0EFD7D890213220321F32E9
:100D4C00262A26502718D8A4F7D725AE0CD0FF0E8C
:100D5C001C1AFF0E1D1AFF0E1E1A010E1C26000E69
:100D6C001D22000E1E2225AC0CD0FF0E1F1AFF0EEA
:100D7C00201AFF0E211A010E1F26000E2022000E33
:100D8C002122000E256E1C501F261D5020221E50A5
:100D9C00212221AE0ED0FF0E1F1AFF0E201AFF0EBD
:100DAC00211A010E1F26000E2022000E2122010EF8
:100DBC00256E1FC001F020C002F021C003F027C037
:100DCC0004F025C005F0E3EC0AF001C01CF002C0F1
:100DDC001DF003C01EF01200000E0001666F525091
:100DEC0053105410D8A41CD0000E016E000E026ECD
:100DFC00000E036E55C004F056C005F057C006F047
:100E0C0082EC0BF0D8A005D0000E0001966F210EDD
:100E1C00956F000E526E000E536E000E546E120043
:100E2C00555056105710D8A407D0000E526E800E95
:100E3C00536E3F0E546E120054AE43D055C028F082
:100E4C0056C029F057C02AF041EC08F028C067F0D2
:100E5C0029C068F02AC069F02BC06AF067C009F09D
:100E6C0068C00AF069C00BF06AC00CF0BDEC0CF065
:100E7C005550091807E156500A1804E157500B1841
:100E8C00D8B40CD0000E0001966F210E956F000E99
:100E9C00526E000E536E000E546E1200000167511C
:100EAC00010B0001666F52C001F053C002F054C038
:100EBC0003F050EC0DF001C052F002C053F003C02F
:100ECC0054F052C034F053C035F054C036F0B2EC8C
:100EDC0007F034C060F035C061F036C062F060C01D
:100EEC000DF061C00EF062C00FF055C010F056C08E
:100EFC0011F057C012F0BBEC08F00DC063F00EC03F
:100F0C0064F00FC065F063C049F064C04AF065C07E
:100F1C004BF028EC05F049C052F04AC053F04BC0DE
:100F2C0054F0000166510001D8B40FD052C001F04A
:100F3C0053C002F054C003F050EC0DF001C052F05D
:100F4C0002C053F003C054F0120052C052F053C010
:100F5C0053F054C054F0120036AE0CD0000E000109
:100F6C00966F210E956F000E346E000E356E000ECE
:100F7C00366E1200345035103610D8A40CD0000E3A
:100F8C000001966F220E956F000E346E000E356EBA
:100F9C00000E366E1200000E106E000E116E400E1A
:100FAC00126E370E046E000E056E34C001F035C0A3
:100FBC0002F036C003F03AEC0BF001C00DF002C0A9
:100FCC000EF003C00FF0BBEC08F00DC01CF00EC00F
:100FDC001DF00FC01EF0000E1F6E800E206EBF0E97
:100FEC00216E1CEC06F01CC034F01DC035F01EC088
:100FFC0036F03706D8A0380634C028F035C029F0B2
:10100C0036C02AF01F0E2B6E080E2C6E000E2E6EA4
:10101C00080E2D6E17EC0AF028C034F029C035F0FC
:10102C002AC036F0720E106E310E116E3F0E126E1B
:10103C0037C009F038C00AF00BEC0DF009C00DF008
:10104C000AC00EF00BC00FF0BBEC08F00DC01CF08A
:10105C000EC01DF00FC01EF034C01FF035C020F0C4
:10106C0036C021F01CEC06F01CC034F01DC035F06D
:10107C001EC036F012002AC02CF02D6A2E6A2934BC
:10108C002C3601E32D802C50366E3650D8A409D066
:10109C00000E286E000E296E000E2A6E000E2B6EAE
:1010AC001200170E2C6E28C02DF029C02EF02AC06D
:1010BC002FF02C28306E04D0D8902F322E322D32B7
:1010CC00302EFAD72D50316E298EFF0E2816FF0EBA
:1010DC002916000E2A162850326E2950336E2A50CB
:1010EC00346E356A8E0E365E36AE16D03650800AA9
:1010FC008F0FD8B009D0000E286E000E296E000E8E
:10110C002A6E000E2B6E1200D890353234323332E8
:10111C003232363EF9D715D0170E36640FD0000E8A
:10112C00286E000E296E000E2A6E000E2B6E120019
:10113C00D890323633363436353636063650D8A457
:10114C00F7D73150D8B408D0351E341E331E326C4C
:10115C00000E33223422352232C028F033C029F05D
:10116C0034C02AF035C02BF012000FC013F0146AF3
:10117C00156A0E34133601E314801350166E165094
:10118C00D8A407D0000E0D6E000E0E6E000E0F6E62
:10119C00120012C013F0146A156A1134133601E3ED
:1011AC00148013501B6E1B50D8A407D0000E0D6E6C
:1011BC00000E0E6E000E0F6E12001B507B0F1626CB
:1011CC000FC01BF012501B1A800E1B160E8E118EA8
:1011DC00FF0E1016FF0E1116000E1216000E176ED3
:1011EC00000E186E000E196E070E1A6E0DA006D0AA
:1011FC00105017261150182212501922D8900F3265
:10120C000E320D32D8901036113612361A2EEED709
:10121C00090E1A6E0DA006D0105017261150182268
:10122C0012501922D8900F320E320D32D89019323A
:10123C00183217321A2EEED717C001F018C002F070
:10124C0019C003F016C004F01BC005F0E3EC0AF063
:10125C0001C00DF002C00EF003C00FF012000BC065
:10126C000FF0106A116A0A340F3601E310800F5028
:10127C00166E1650D8A407D0000E096E000E0A6E1A
:10128C00000E0B6E12000EC00FF0106A116A0D34B6
:10129C000F3601E310800F50176E1750D8A407D0EB
:1012AC00000E096E000E0A6E000E0B6E1200000E80
:1012BC00136E000E146E000E156E1750890F165E0D
:1012CC000BC017F00E50171A800E17160A8EFF0E51
:1012DC000916FF0E0A16000E0B160D8EFF0E0C16BD
:1012EC00FF0E0D16000E0E16180E126ED890133639
:1012FC00143615360C50095C0D500A580E500B580C
:10130C00D8A007D00C50095E0D500A5A0E500B5A3B
:10131C001380D89009360A360B36122EE7D713C035
:10132C0001F014C002F015C003F016C004F017C091
:10133C0005F0E3EC0AF001C009F002C00AF003C0AA
:10134C000BF0120041C001F042C002F043C003F0A8
:10135C00470E046E000E056E3AEC0BF048AE10D042
:10136C0043AE07D0000E416E800E426EBF0E436E30
:10137C001200000E416E000E426E000E436E120003
:10138C00485004E1150E475CD8A007D041C041F08D
:10139C0042C042F043C043F0120041C028F042C0AA
:1013AC0029F043C02AF041EC08F028C037F029C0DE
:1013BC0038F02AC039F02BC03AF04AEC0CF037C0A8
:1013CC0044F038C045F039C046F041C001F042C08D
:1013DC0002F043C003F044C004F045C005F046C021
:1013EC0006F082EC0BF0D8B015D044C01CF045C010
:1013FC001DF046C01EF0000E1F6E800E206EBF0E3C
:10140C00216E1CEC06F01CC041F01DC042F01EC049
:10141C0043F0120044C041F045C042F046C043F0D6
:10142C0012002DC001F02EC002F0000E046E030E4F
:10143C00036E3DEC0DF02BC02FF02CC030F00150A2
:10144C002F26025030222FC0F6FF30C0F7FF0900C4
:10145C00F5CF31F00900F5CF32F00A00F5CF33F0BB
:10146C003ED031C010F032C011F033C012F028C0A1
:10147C000DF029C00EF02AC00FF0BBEC08F00DC027
:10148C001CF00EC01DF00FC01EF0000E046E030EFB
:10149C00036E2D06D8A02E062DC001F02EC002F032
:1014AC003DEC0DF02BC02FF02CC030F001502F264E
:1014BC00025030222FC0F6FF30C0F7FF0900F5CFE5
:1014CC001FF00900F5CF20F00A00F5CF21F01CEC3D
:1014DC0006F01CC031F01DC032F01EC033F02D5090
:1014EC002E10D8A4BED731C028F032C029F033C09A
:1014FC002AF01200345035103610D8A407D0000E44
:10150C00346E000E356E000E366E120036507F0BA8
:10151C00396E3A6AD89039363A36395037263A50BD
:10152C00382235AE03D0396A392A01D0396A39509C
:10153C003726000E382238AE0CD0000E0001966F04
:10154C00220E956F000E346E000E356E000E366E48
:10155C00120038BE16D03804D8A013D0000E0001EB
:10156C00966F220E956F36AE06D0FF0E346E7F0E40
:10157C00356EFF0EECD7FF0E346E7F0E356E7F0E80
:10158C00E6D7383438303A6E3730396E3650391831
:10159C00800B3918366E37C039F0010E39163932D6
:1015AC003932355039187F0B3918356E34C034F058
:1015BC0035C035F036C036F012000450D8B405D022
:1015CC00015002100310D8A40CD0000E016E000EB6
:1015DC00026E000E036E1200042AD89003320232FF
:1015EC000132000E0114066E000E0214076EFE0E80
:1015FC000314086E065007100810D8B40CD0ECD7A2
:10160C00042A010E0126000E0222000E0322D8909D
:10161C00033202320132000E0114066E000E021467
:10162C00076EFF0E0314086E065007100810D8B48E
:10163C0006D0E6D70406D89001360236033602BE31
:10164C0003D0020E0460F6D704A0029ED890043298
:10165C00045003120550D8A4038E01C001F002C03F
:10166C0002F003C003F01200015002100310D8A4C2
:10167C000FD004C0D9FF05C0DAFF000EDE6E000EDD
:10168C00DD6E000E016E000E026E000E036E120077
:10169C0003507F0B066E076AD8900636073604C0D7
:1016AC00D9FF05C0DAFF06C0DEFF07C0DDFF02AEC2
:1016BC0003D0066A062A01D0066A065004C0D9FF78
:1016CC0005C0DAFFDE12000EDD1204C0D9FF05C022
:1016DC00DAFF820EDE26FF0EDD22038003820384F6
:1016EC0003860388038A039C029E01C001F002C09A
:1016FC0002F003C003F0120003AE16D001C007F0D5
:10170C0002C008F003C009F0071E081E091E072AB4
:10171C00000E08220922000E0724016E000E08207C
:10172C00026E800E0920036E06AE16D004C007F0C0
:10173C0005C008F006C009F0071E081E091E072A7E
:10174C00000E08220922000E0724046E000E082049
:10175C00056E800E0920066E000E011A000E021A8C
:10176C00800E031A000E041A000E051A800E061ABB
:10177C000450015C0550025806500358D8B002D0F2
:10178C00D8901200D8801200000E066E04AE06D05F
:10179C00036C041ED8B0042A010E066E02AE06D0ED
:1017AC00016C021ED8B0022A010E061A000E086E39
:1017BC00000E076E03500410D8B41CD0010E056E39
:1017CC0004D0D89003360436052A04AEFAD7D89044
:1017DC00073608360350015C04500258D8A005D0D7
:1017EC000350015E0450025A0780D8900432033231
:1017FC00052EEDD70650D8B404D0076C081ED8B00F
:10180C00082A07C001F008C002F012000600FACF47
:10181C0073F0FBCF74F0E9CF75F0EACF76F0E1CF3F
:10182C0077F0E2CF78F0D9CF79F0DACF7AF0F3CF46
:10183C007BF0F4CF7CF0F6CF7DF0F7CF7EF0F8CFD5
:10184C007FF0F5CF80F0F2B286EC0CF080C0F5FFA3
:10185C007FC0F8FF7EC0F7FF7DC0F6FF7CC0F4FFB1
:10186C007BC0F3FF7AC0DAFF79C0D9FF78C0E2FF02
:10187C0077C0E1FF76C0EAFF75C0E9FF74C0FBFFDB
:10188C0073C0FAFF5E921100000E406E8E0E3F6E1A
:10189C003AAE11D03A1E391E381E376C000E382263
:1018AC0039223A22010E406E06D0D8903A323932A3
:1018BC00383237323F2A000E37143B6E000E381484
:1018CC003C6E000E39143D6EFF0E3A143E6E3B50CA
:1018DC003C103D103E10D8A4E8D737C001F038C0FA
:1018EC0002F039C003F03FC004F040C005F0E3EC57
:1018FC000AF001C037F002C038F003C039F0120012
:10190C0000019CBF08D0E90E00019B5D030E000195
:10191C009C59D8B00ED00A0E00019B27000E9C23B8
:10192C009BC058F09CC059F01EEC04F09BC0BBFF50
:10193C0005D0000E00019C6F000E9B6F8AB203D085
:10194C005C6A5C2A01D05C6A5C468A505C18FD0BB0
:10195C005C188A6E100E5D6E390E5C6E0E0EE82EE3
:10196C00FED75C2EFCD75D2EFAD7F29212008E0EAB
:10197C00116E06D0D8900C320B320A320932112A71
:10198C00000E09140D6E000E0A140E6E000E0B14D0
:10199C000F6EFF0E0C14106E0D500E100F10101059
:1019AC00D8A4E8D709C001F00AC002F00BC003F0BC
:1019BC0011C004F0000E056EE3EC0AF001C009F052
:1019CC0002C00AF003C00BF012002B502C102D108B
:1019DC00D8B406D0000E2B1A000E2C1A800E2D1A1D
:1019EC0028C01CF029C01DF02AC01EF02BC01FF00F
:1019FC002CC020F02DC021F01CEC06F01CC028F0EF
:101A0C001DC029F01EC02AF01200000E0C6E0AAE8A
:101A1C0006D0096C0A1ED8B00A2A010E0C6E09C039
:101A2C0001F00AC002F0036A8E0E046E0CC005F0C1
:101A3C00E3EC0AF001C009F002C00AF003C00BF09D
:101A4C001200F90ECB6E000EBB6E0C0EBA6E070EAA
:101A5C00CA6E93968A9693928A9293808A900F0E6E
:101A6C00C112F288F292F28EF28CF18C12000150BB
:101A7C000302F3CF05F0F4CF06F001500402F3504B
:101A8C00062602500302F350062605C001F006C0DC
:101A9C0002F01200015002100310D8B406D0000E50
:101AAC00011A000E021A800E031A01C001F002C0C6
:101ABC0002F003C003F0120000EE81F01C0EEE6A7F
:101ACC00E806FDE15E905E92000EF86E080EF76E71
:0C1ADC00000171EF0DF027EC0DF0FFD7BA
:020000040020DA
:08000000FFFFFFFFFFFFFFFF00
:020000040030CA
:0E000000040E1F1FFF0285FF0FC00FE00F4010
:00000001FF
