:0400000007EF00F016
:0A000800328269ED05F0E2EF05F029
:10080000004C6F6164696E67206669726D77617212
:0508100065002E000050
:1008160024502510D8A402D0AC9801D0AC88AB8E59
:10082600949C948EAB88AC8A9D8AF28EF28CAC84B2
:1008360026502710D8B439D0B8861EC014F01FC071
:1008460015F0000E15BEFF0E166E176E20C010F0C6
:1008560021C011F022C012F023C013F003EC05F002
:1008660010C028F011C029F012C02AF013C02BF0D6
:1008760028C010F029C011F02AC012F02BC013F0C6
:10088600040E146E000E156E000E166E000E176E18
:1008960003EC05F0FF0E10242C6EFF0E11202D6EBA
:1008A6002CC0AFFF000EB06E1200B8961EC014F03A
:1008B6001FC015F0000E15BEFF0E166E176E20C077
:1008C60010F021C011F022C012F023C013F003EC87
:1008D60005F010C028F011C029F012C02AF013C08C
:1008E6002BF028C010F029C011F02AC012F02BC03E
:1008F60013F0100E146E000E156E000E166E000E1E
:10090600176E03EC05F0FF0E10242C6EFF0E11205F
:100916002D6E2CC0AFFF1200250E1F6E800E1E6EB0
:10092600000E206E360E216E6E0E226E010E236EA6
:10093600000E256E000E246E000E276E000E266E2B
:100946000BEC04F0190E2F6E5A0E2E6EB20EE82E18
:10095600FED72E2EFCD72F2EFAD7010E116E080EBB
:10096600126EC9EC05F0000EACB2010E306E3050BE
:10097600ECEC05F0100E2F6E390E2E6E0E0EE82ED4
:10098600FED72E2EFCD72F2EFAD7120E116E080E7A
:10099600126EC9EC05F0100E2F6E390E2E6E0E0E6D
:1009A600E82EFED72E2EFCD72F2EFAD7120E116E5A
:1009B600080E126EC9EC05F0100E2F6E390E2E6E53
:1009C6000E0EE82EFED72E2EFCD72F2EFAD7120E9D
:1009D600116E080E126EAAEC05F0000EACB2010EF6
:1009E600306E3050ECEC05F0100E2F6E390E2E6E78
:1009F6000E0EE82EFED72E2EFCD72F2EFAD7EDD7C9
:100A0600000E196E17AE0AD0171E161E151E146C90
:100A1600000E152216221722010E196E13AE0AD0E9
:100A2600131E121E111E106C000E1122122213220A
:100A3600010E191A000E1A6E000E1B6E000E1C6EA9
:100A4600000E1D6E1450151016101710D8B42AD0AB
:100A5600010E186E06D0D89014361536163617368F
:100A6600182A17AEF8D7D8901A361B361C361D36FC
:100A76001450105C15501158165012581750135830
:100A8600D8A009D01450105E1550115A1650125A9B
:100A96001750135A1A80D89017321632153214325C
:100AA600182EE1D71950D8B408D01D1E1C1E1B1EC7
:100AB6001A6C000E1B221C221D221AC010F01BC02D
:100AC60011F01CC012F01DC013F012000600FACF80
:100AD60002F0FBCF03F0E9CF04F0EACF05F0E1CF57
:100AE60006F0E2CF07F0D9CF08F0DACF09F0F3CF5E
:100AF6000AF0F4CF0BF0F6CF0CF0F7CF0DF0F8CFED
:100B06000EF0F5CF0FF09EAA04D0AE50F2EC05F031
:100B16009E500FC0F5FF0EC0F8FF0DC0F7FF0CC0CA
:100B2600F6FF0BC0F4FF0AC0F3FF09C0DAFF08C0E6
:100B3600D9FF07C0E2FF06C0E1FF05C0EAFF04C017
:100B4600E9FF03C0FBFF02C0FAFF3292110011C099
:100B560013F012C014F00AD013C0F6FF14C0F7FF4A
:100B66000800F550ECEC05F0134A142A13C0F6FF02
:100B760014C0F7FF0800F5500009D8A4EDD70A0EF7
:100B8600ECEC05F00D0EECEC05F0120011C013F0C4
:100B960012C014F00AD013C0F6FF14C0F7FF080005
:100BA600F550ECEC05F0134A142A13C0F6FF14C0F6
:100BB600F7FF0800F5500009D8B41200ECD7316AE7
:100BC60032903292000EF86E080EF76E00018FEF2B
:100BD60004F0106E10C0ADFFACB21200FDD7016E6E
:0A0BE60001C0ADFFACB21200FDD754
:020000040020DA
:08000000FFFFFFFFFFFFFFFF00
:020000040030CA
:0E000000140E1F1FFF8385FF0FC00FE00F407F
:00000001FF
