:04000000C0EF3FF01E
:107F80000001C8EF3FF0800E936E800E8A6E1200E3
:107F9000C3EC3FF0010E8A6E050E026EDF0E016E1D
:107FA000BC0EE82EFED7012EFCD7022EFAD7000E0B
:107FB000036E020E036401D00FD0D8908A36050EEE
:107FC000026EDF0E016EBC0EE82EFED7012EFCD72E
:107FD000022EFAD7032AEDD7020E046E0450D8B44D
:107FE000D9D7D8908A32050E026EDF0E016EBC0E14
:107FF000E82EFED7012EFCD7022EFAD70406EED7C4
:020000040020DA
:08000000FFFFFFFFFFFFFFFF00
:020000040030CA
:0E000000040E1F1FFF0385FF0FC00FE00F400F
:00000001FF
