:0400000007EF00F016
:10000800128209ED00F08BEF00F00600FACF01F044
:10001800FBCF02F0E9CF03F0EACF04F0E1CF05F01F
:10002800E2CF06F0D9CF07F0DACF08F0F3CF09F026
:10003800F4CF0AF0F6CF0BF0F7CF0CF0F8CF0DF0B5
:10004800F5CF0EF00F4A102A000ED76E440ED66E6A
:10005800F294F40E0F1805E11004D8A402D0310E62
:10006800116EAC0E0F1806E10D0E1018D8A402D0B0
:10007800320E116E940E0F1806E1110E1018D8A446
:1000880002D0330E116E4C0E0F180AE11D0E101817
:10009800D8A406D0000E106E000E0F6E300E116E32
:1000A8000EC0F5FF0DC0F8FF0CC0F7FF0BC0F6FF40
:1000B8000AC0F4FF09C0F3FF08C0DAFF07C0D9FF80
:1000C80006C0E2FF05C0E1FF04C0EAFF03C0E9FF84
:1000D80002C0FBFF01C0FAFF129211009DEC00F074
:1000E80008D0000E05D0010E03D0020E01D0040E78
:1000F800816E1150300AD8B4F4D7010AD8B4F3D7B6
:10010800030AD8B4F2D7010AD8B4F1D7F2D7560EF9
:10011800F66E010EF76E000EF86E0900F5CF11F0BD
:10012800106A0F6A12901292000EF86E000172EFB8
:1001380000F0000E936E000E8A6EC50ED56E000E8E
:0F014800D76E440ED66EF294F28EF28A12003009
:020000040020DA
:08000000FFFFFFFFFFFFFFFF00
:020000040030CA
:0E000000040E1F1FFF0385FF0FC00FE00F400F
:00000001FF
