:0400000056EF00F0C7
:06000800278258ED00F014
:100018002780D8CF12F0E8CF13F0E0CF14F0FACF52
:1000280015F0FBCF16F0E9CF17F0EACF18F0E1CFC3
:1000380019F0E2CF1AF0D9CF1BF0DACF1CF0F3CFCA
:100048001DF0F4CF1EF0F6CF1FF0F7CF20F0F8CF59
:1000580021F0F5CF22F09EB096EC00F022C0F5FF1B
:1000680021C0F8FF20C0F7FF1FC0F6FF1EC0F4FF35
:100078001DC0F3FF1CC0DAFF1BC0D9FF1AC0E2FF86
:1000880019C0E1FF18C0EAFF17C0E9FF16C0FBFF5F
:1000980015C0FAFF14C0E0FF13C0E8FF12C0D8FF74
:1000A80027901000FBEF00F00600FACF02F0FBCF1C
:1000B80003F0E9CF04F0EACF05F0E1CF06F0E2CF94
:1000C80007F0D9CF08F0DACF09F0F3CF0AF0F4CF70
:1000D8000BF0F6CF0CF0F7CF0DF0F8CF0EF0F5CF10
:1000E8000FF0F2B4C1EC00F00FC0F5FF0EC0F8FF3E
:1000F8000DC0F7FF0CC0F6FF0BC0F4FF0AC0F3FFFA
:1001080009C0DAFF08C0D9FF07C0E2FF06C0E1FF57
:1001180005C0EAFF04C0E9FF03C0FBFF02C0FAFF05
:10012800279211009E90234A242AFA0ECF6E240E9D
:10013800CE6E24BE1200245004E10A0E235CD8A01F
:1001480012008AB203D0106A102A01D0106A104631
:100158008A501018FD0B10188A6E3D0E116EE10EB4
:10016800106E400EE82EFED7102EFCD7112EFAD7AF
:10017800000E246E000E236E1200F294254A262AE1
:10018800000ED76E440ED66E26BE1200265004E12D
:10019800640E255CD8A012008AB003D0016A012A37
:1001A80001D0016A8A500118FE0B01188A6E000EF0
:1001B800266E000E256E1200000E936E000E8A6EDB
:1001C800C50ED56E000ED76E440ED66EF28AF29426
:1001D800B90ECD6EFA0ECF6E240ECE6E9D809E9017
:1001E800D08EF28EF28CF28CF1849F901200266AE7
:1001F800256A246A236A27902792000104EF01F0F8
:06020800E0EC00F0FFD75E
:020000040020DA
:08000000FFFFFFFFFFFFFFFF00
:020000040030CA
:0E000000040E1F1FFF0385FF0FC00FE00F400F
:00000001FF
