:0400000007EF00F016
:10000800158209ED00F07AEF00F00600FACF01F052
:10001800FBCF02F0E9CF03F0EACF04F0E1CF05F01F
:10002800E2CF06F0D9CF07F0DACF08F0F3CF09F026
:10003800F4CF0AF0F6CF0BF0F7CF0CF0F8CF0DF0B5
:10004800F5CF0EF0134A142AF294000ED76E440E20
:10005800D66E14BE0FD0E80E135C030E1458D8A049
:1000680009D0000E146E000E136E8A2A8AA602D0DA
:10007800000E8A6E0EC0F5FF0DC0F8FF0CC0F7FF2A
:100088000BC0F6FF0AC0F4FF09C0F3FF08C0DAFF8F
:1000980007C0D9FF06C0E2FF05C0E1FF04C0EAFFC0
:1000A80003C0E9FF02C0FBFF01C0FAFF159211006F
:1000B80083EC00F08CEC00F093EC00F081B803D0F6
:1000C8000F6A0F2A01D00F6A0F3A81500F18EF0BF1
:1000D8000F18816E100E106E390E0F6E0E0EE82E70
:1000E800FED70F2EFCD7102EFAD7E8D7146A136A5A
:1000F800126A116A1590159200015CEF00F0000E6B
:10010800936E000E8A6E0F0E926E0F0EC16E120065
:10011800C50ED56E000ED76E440ED66E1200D08E68
:08012800F28AF294F28E12003B
:020000040020DA
:08000000FFFFFFFFFFFFFFFF00
:020000040030CA
:0E000000040E1F1FFF0385FF0FC00FE00F400F
:00000001FF
