:04000000C5EF3EF01A
:107D8A000001FFEF3EF0CB687F0EBB6E3C0EBA6E71
:107D9A00000E946E000E8B6ECA80CA841200000E0A
:107DAA00096E000E0A6E000E0B6E000E0C6E01A01C
:107DBA0008D00550092606500A2207500B220850FF
:107DCA000C22D8900536063607360836D890043283
:107DDA000332023201320150021003100410D8A4F7
:107DEA00E6D709C001F00AC002F00BC003F00CC0CC
:107DFA0004F01200C8EC3EF0000E2A6E000E296E46
:107E0A002ABE06D02A50F8E1640E295CD8B0F4D70D
:107E1A0029C01BF02AC01CF0000E1CBEFF0E1D6EEE
:107E2A001E6E45EC3FF0270E286EF50EE82EFED7A3
:107E3A00282EFCD700F0630E29182A10D8A41DD0CA
:107E4A00000E2A6E630E296E2ABE17D029C01BF0B7
:107E5A002AC01CF0000E1CBEFF0E1D6E1E6E45ECE5
:107E6A003FF0270E286EF50EE82EFED7282EFCD7F7
:107E7A0000F02906D8A02A06E7D7294A2A2AC0D715
:107E8A00000E246E000E256E000E266E000E276E62
:107E9A001BC001F01CC002F01DC003F01EC004F09C
:107EAA00FF0E056E030E066E000E076E000E086EBC
:107EBA00D4EC3EF001C00DF002C00EF003C00FF08A
:107ECA0004C010F0640E116E000E126E000E136ED6
:107EDA00000E146E9AEC3FF00DC024F00EC025F08F
:107EEA000FC026F010C027F0020E1F6E24C020F02B
:107EFA0025C021F026C022F027C023F01F6601D03A
:107F0A0007D0233423322232213220321F2EF6D7D1
:107F1A002050BB6E24C01FF0030E1F161F3ABA5022
:107F2A001F18CF0B1F18BA6E1200000E166E14AE71
:107F3A000AD0141E131E121E116C000E12221322D6
:107F4A001422010E166E10AE0AD0101E0F1E0E1E3F
:107F5A000D6C000E0E220F221022010E161A000EB0
:107F6A00176E000E186E000E196E000E1A6E115062
:107F7A00121013101410D8B42AD0010E156E06D0A0
:107F8A00D8901136123613361436152A14AEF8D78D
:107F9A00D8901736183619361A3611500D5C125009
:107FAA000E5813500F5814501058D8A009D0115019
:107FBA000D5E12500E5A13500F5A1450105A178051
:107FCA00D8901432133212321132152EE1D71650CC
:107FDA00D8B408D01A1E191E181E176C000E1822C3
:107FEA0019221A2217C00DF018C00EF019C00FF08E
:067FFA001AC010F0120095
:020000040020DA
:08000000FFFFFFFFFFFFFFFF00
:020000040030CA
:0E000000140E1F1EFF0385FF0FC00FE00F4000
:00000001FF
